{
  "contractName": "Funding",
  "abi": [
    {
      "inputs": [
        {
          "internalType": "string",
          "name": "_projectName",
          "type": "string"
        },
        {
          "internalType": "string",
          "name": "_projectDetail",
          "type": "string"
        },
        {
          "internalType": "uint256",
          "name": "_targetBalance",
          "type": "uint256"
        },
        {
          "internalType": "uint256",
          "name": "_durationInSeconds",
          "type": "uint256"
        }
      ],
      "payable": false,
      "stateMutability": "nonpayable",
      "type": "constructor"
    },
    {
      "constant": true,
      "inputs": [],
      "name": "currentBalance",
      "outputs": [
        {
          "internalType": "uint256",
          "name": "",
          "type": "uint256"
        }
      ],
      "payable": false,
      "stateMutability": "view",
      "type": "function"
    },
    {
      "constant": true,
      "inputs": [],
      "name": "endTime",
      "outputs": [
        {
          "internalType": "uint256",
          "name": "",
          "type": "uint256"
        }
      ],
      "payable": false,
      "stateMutability": "view",
      "type": "function"
    },
    {
      "constant": true,
      "inputs": [
        {
          "internalType": "address",
          "name": "",
          "type": "address"
        }
      ],
      "name": "investorBalance",
      "outputs": [
        {
          "internalType": "uint256",
          "name": "",
          "type": "uint256"
        }
      ],
      "payable": false,
      "stateMutability": "view",
      "type": "function"
    },
    {
      "constant": true,
      "inputs": [
        {
          "internalType": "uint256",
          "name": "",
          "type": "uint256"
        }
      ],
      "name": "investors",
      "outputs": [
        {
          "internalType": "address payable",
          "name": "",
          "type": "address"
        }
      ],
      "payable": false,
      "stateMutability": "view",
      "type": "function"
    },
    {
      "constant": true,
      "inputs": [],
      "name": "manager",
      "outputs": [
        {
          "internalType": "address payable",
          "name": "",
          "type": "address"
        }
      ],
      "payable": false,
      "stateMutability": "view",
      "type": "function"
    },
    {
      "constant": true,
      "inputs": [],
      "name": "projectDetail",
      "outputs": [
        {
          "internalType": "string",
          "name": "",
          "type": "string"
        }
      ],
      "payable": false,
      "stateMutability": "view",
      "type": "function"
    },
    {
      "constant": true,
      "inputs": [],
      "name": "projectName",
      "outputs": [
        {
          "internalType": "string",
          "name": "",
          "type": "string"
        }
      ],
      "payable": false,
      "stateMutability": "view",
      "type": "function"
    },
    {
      "constant": true,
      "inputs": [],
      "name": "targetBalance",
      "outputs": [
        {
          "internalType": "uint256",
          "name": "",
          "type": "uint256"
        }
      ],
      "payable": false,
      "stateMutability": "view",
      "type": "function"
    },
    {
      "constant": false,
      "inputs": [],
      "name": "invest",
      "outputs": [],
      "payable": true,
      "stateMutability": "payable",
      "type": "function"
    },
    {
      "constant": false,
      "inputs": [],
      "name": "drawBack",
      "outputs": [],
      "payable": false,
      "stateMutability": "nonpayable",
      "type": "function"
    }
  ],
  "bytecode": "0x608060405234801561001057600080fd5b5060405162000b8d38038062000b8d8339818101604052608081101561003557600080fd5b810190808051604051939291908464010000000082111561005557600080fd5b8382019150602082018581111561006b57600080fd5b825186600182028301116401000000008211171561008857600080fd5b8083526020830192505050908051906020019080838360005b838110156100bc5780820151818401526020810190506100a1565b50505050905090810190601f1680156100e95780820380516001836020036101000a031916815260200191505b506040526020018051604051939291908464010000000082111561010c57600080fd5b8382019150602082018581111561012257600080fd5b825186600182028301116401000000008211171561013f57600080fd5b8083526020830192505050908051906020019080838360005b83811015610173578082015181840152602081019050610158565b50505050905090810190601f1680156101a05780820380516001836020036101000a031916815260200191505b506040526020018051906020019092919080519060200190929190505050336000806101000a81548173ffffffffffffffffffffffffffffffffffffffff021916908373ffffffffffffffffffffffffffffffffffffffff160217905550836001908051906020019061021492919061024d565b50826002908051906020019061022b92919061024d565b50816004819055506000600381905550428101600581905550505050506102f2565b828054600181600116156101000203166002900490600052602060002090601f016020900481019282601f1061028e57805160ff19168380011785556102bc565b828001600101855582156102bc579182015b828111156102bb5782518255916020019190600101906102a0565b5b5090506102c991906102cd565b5090565b6102ef91905b808211156102eb5760008160009055506001016102d3565b5090565b90565b61088b80620003026000396000f3fe6080604052600436106100915760003560e01c8063481c6a7511610059578063481c6a751461025c578063687eeaf7146102b35780639a33e300146102ca578063ce845d1d1461035a578063e8b5e51f1461038557610091565b80631731cc05146100965780633197cbb61461012657806333941681146101515780633feb5f2b146101b657806343cce08e14610231575b600080fd5b3480156100a257600080fd5b506100ab61038f565b6040518080602001828103825283818151815260200191508051906020019080838360005b838110156100eb5780820151818401526020810190506100d0565b50505050905090810190601f1680156101185780820380516001836020036101000a031916815260200191505b509250505060405180910390f35b34801561013257600080fd5b5061013b61042d565b6040518082815260200191505060405180910390f35b34801561015d57600080fd5b506101a06004803603602081101561017457600080fd5b81019080803573ffffffffffffffffffffffffffffffffffffffff169060200190929190505050610433565b6040518082815260200191505060405180910390f35b3480156101c257600080fd5b506101ef600480360360208110156101d957600080fd5b810190808035906020019092919050505061044b565b604051808273ffffffffffffffffffffffffffffffffffffffff1673ffffffffffffffffffffffffffffffffffffffff16815260200191505060405180910390f35b34801561023d57600080fd5b50610246610487565b6040518082815260200191505060405180910390f35b34801561026857600080fd5b5061027161048d565b604051808273ffffffffffffffffffffffffffffffffffffffff1673ffffffffffffffffffffffffffffffffffffffff16815260200191505060405180910390f35b3480156102bf57600080fd5b506102c86104b2565b005b3480156102d657600080fd5b506102df61064d565b6040518080602001828103825283818151815260200191508051906020019080838360005b8381101561031f578082015181840152602081019050610304565b50505050905090810190601f16801561034c5780820380516001836020036101000a031916815260200191505b509250505060405180910390f35b34801561036657600080fd5b5061036f6106eb565b6040518082815260200191505060405180910390f35b61038d6106f1565b005b60028054600181600116156101000203166002900480601f0160208091040260200160405190810160405280929190818152602001828054600181600116156101000203166002900480156104255780601f106103fa57610100808354040283529160200191610425565b820191906000526020600020905b81548152906001019060200180831161040857829003601f168201915b505050505081565b60055481565b60076020528060005260406000206000915090505481565b6006818154811061045857fe5b906000526020600020016000915054906101000a900473ffffffffffffffffffffffffffffffffffffffff1681565b60045481565b6000809054906101000a900473ffffffffffffffffffffffffffffffffffffffff1681565b6000809054906101000a900473ffffffffffffffffffffffffffffffffffffffff1673ffffffffffffffffffffffffffffffffffffffff163373ffffffffffffffffffffffffffffffffffffffff161461050b57600080fd5b60055442101561051a57600080fd5b600454471061052857600080fd5b60008090505b60068054905081101561063c576006818154811061054857fe5b9060005260206000200160009054906101000a900473ffffffffffffffffffffffffffffffffffffffff1673ffffffffffffffffffffffffffffffffffffffff166108fc600760006006858154811061059d57fe5b9060005260206000200160009054906101000a900473ffffffffffffffffffffffffffffffffffffffff1673ffffffffffffffffffffffffffffffffffffffff1673ffffffffffffffffffffffffffffffffffffffff168152602001908152602001600020549081150290604051600060405180830381858888f1935050505015801561062e573d6000803e3d6000fd5b50808060010191505061052e565b506006600061064b9190610810565b565b60018054600181600116156101000203166002900480601f0160208091040260200160405190810160405280929190818152602001828054600181600116156101000203166002900480156106e35780601f106106b8576101008083540402835291602001916106e3565b820191906000526020600020905b8154815290600101906020018083116106c657829003601f168201915b505050505081565b60035481565b476004540334111561070257600080fd5b6000600760003373ffffffffffffffffffffffffffffffffffffffff1673ffffffffffffffffffffffffffffffffffffffff1681526020019081526020016000205414156107b15760063390806001815401808255809150509060018203906000526020600020016000909192909190916101000a81548173ffffffffffffffffffffffffffffffffffffffff021916908373ffffffffffffffffffffffffffffffffffffffff160217905550505b34600760003373ffffffffffffffffffffffffffffffffffffffff1673ffffffffffffffffffffffffffffffffffffffff1681526020019081526020016000206000828254019250508190555034600360008282540192505081905550565b508054600082559060005260206000209081019061082e9190610831565b50565b61085391905b8082111561084f576000816000905550600101610837565b5090565b9056fea265627a7a72315820bb5be2a616709943b55fd0c3be79c0472b43e18022518164882f38cf3695d25764736f6c63430005100032",
  "source": "// SPDX-License-Identifier: MIT\r\npragma solidity >=0.5.0 <0.9.0;\r\n\r\ncontract Funding {\r\n    // 发起⼈\r\n    // 项⽬名称\r\n    // 项目介绍\r\n    // 众筹⽬标⾦额\r\n    // 众筹截⽌⽇期\r\n    // 投资人\r\n    address payable public manager;\r\n    string public projectName;\r\n    string public projectDetail;\r\n    uint public currentBalance;\r\n    uint public targetBalance;\r\n    uint public endTime;\r\n    \r\n    address payable[] public investors;\r\n    mapping (address => uint) public investorBalance;\r\n\r\n    constructor(string memory _projectName, string memory _projectDetail, uint _targetBalance, \r\n                uint _durationInSeconds) public {\r\n        manager = msg.sender;\r\n        projectName = _projectName;\r\n        projectDetail = _projectDetail;\r\n        targetBalance = _targetBalance;\r\n        currentBalance = 0;\r\n        endTime = _durationInSeconds + block.timestamp;\r\n    }\r\n\r\n    //投资\r\n    function invest() payable public{\r\n        require(msg.value <= targetBalance - address(this).balance);\r\n        if (investorBalance[msg.sender] == 0) {\r\n            investors.push(msg.sender);\r\n        }\r\n        investorBalance[msg.sender] += msg.value;\r\n        currentBalance += msg.value;\r\n    }\r\n    \r\n    modifier onlyManager{\r\n        require(msg.sender == manager);\r\n        _;\r\n    }\r\n    \r\n    //众筹失败，退款\r\n    function drawBack() public onlyManager {\r\n        require(block.timestamp >= endTime);\r\n        require(address(this).balance < targetBalance);\r\n\r\n        for (uint i = 0;i < investors.length;i++){\r\n            investors[i].transfer(investorBalance[investors[i]]);\r\n        }\r\n\r\n        delete investors;\r\n    }\r\n    \r\n    \r\n}",
  "sourcePath": "D:/00VS_Code/BlockChainPro/funding-eth/funding-eth-truffle/contracts/Funding.sol",
  "compiler": {
    "name": "solc",
    "version": "0.5.16+commit.9c3226ce.Emscripten.clang"
  },
  "schemaVersion": "3.3.3",
  "updatedAt": "2020-12-28T13:23:55.314Z",
  "devdoc": {
    "methods": {}
  },
  "userdoc": {
    "methods": {}
  }
}